:020000040000FA
:04000000A9EF3FF035
:107F52000001ACEF3FF0CA84CA50FC0B0109CA6EA3
:107F6200D3508F0B1009D36EBD50F00B0C09BD6EB0
:107F7200000E946E000E8B6E010E936E000E816EDB
:107F82009B0ECB6E000EBE6E300EBD128104D8A4C5
:107F9200CDEF3FF0CFEF3FF0D9EF3FF0020EBE261C
:107FA200070E016E7D0EE82EFED7012EFCD700F0E3
:107FB200040EBE18D8A4E0EF3FF0E2EF3FF0C7EFA7
:107FC2003FF08104D8A4E8EF3FF0EAEF3FF0F4EF8E
:107FD2003FF0020EBE5E070E016E7D0EE82EFED74A
:107FE200012EFCD700F0BE50D8A4FAEF3FF0FCEF10
:0E7FF2003FF0E2EF3FF0C7EF3FF000EF00F08E
:020000040020DA
:08000000FFFFFFFFFFFFFFFF00
:020000040030CA
:0E000000FF081B1EFF8181FF0FC00FE00F40A5
:00000001FF
